{
  "address": "0xfd8Ff2c739DD3dc566C6f7A060bB69663e7dA8Bc",
  "abi": [
    {
      "inputs": [
        {
          "internalType": "address",
          "name": "b_router",
          "type": "address"
        },
        {
          "internalType": "address",
          "name": "b_link",
          "type": "address"
        }
      ],
      "stateMutability": "nonpayable",
      "type": "constructor"
    },
    {
      "inputs": [
        {
          "internalType": "uint64",
          "name": "destinationChainSelector",
          "type": "uint64"
        }
      ],
      "name": "DestinationChainNotAllowlisted",
      "type": "error"
    },
    {
      "inputs": [
        {
          "internalType": "address",
          "name": "owner",
          "type": "address"
        },
        {
          "internalType": "address",
          "name": "target",
          "type": "address"
        },
        {
          "internalType": "uint256",
          "name": "value",
          "type": "uint256"
        }
      ],
      "name": "FailedToWithdrawEth",
      "type": "error"
    },
    {
      "inputs": [],
      "name": "InvalidReceiverAddress",
      "type": "error"
    },
    {
      "inputs": [
        {
          "internalType": "uint256",
          "name": "currentBalance",
          "type": "uint256"
        },
        {
          "internalType": "uint256",
          "name": "calculatedFees",
          "type": "uint256"
        }
      ],
      "name": "NotEnoughBalance",
      "type": "error"
    },
    {
      "inputs": [
        {
          "internalType": "uint256",
          "name": "currentBalance",
          "type": "uint256"
        },
        {
          "internalType": "uint256",
          "name": "calculatedFees",
          "type": "uint256"
        }
      ],
      "name": "NotEnoughBalanceForFees",
      "type": "error"
    },
    {
      "inputs": [
        {
          "internalType": "uint256",
          "name": "currentBalance",
          "type": "uint256"
        }
      ],
      "name": "NotEnoughBalanceUsdcForTransfer",
      "type": "error"
    },
    {
      "inputs": [],
      "name": "NothingToWithdraw",
      "type": "error"
    },
    {
      "anonymous": false,
      "inputs": [
        {
          "indexed": true,
          "internalType": "address",
          "name": "user",
          "type": "address"
        },
        {
          "indexed": false,
          "internalType": "uint256",
          "name": "amount",
          "type": "uint256"
        }
      ],
      "name": "Hoarded",
      "type": "event"
    },
    {
      "anonymous": false,
      "inputs": [
        {
          "indexed": true,
          "internalType": "address",
          "name": "user",
          "type": "address"
        },
        {
          "indexed": false,
          "internalType": "uint256",
          "name": "amount",
          "type": "uint256"
        }
      ],
      "name": "Pooled",
      "type": "event"
    },
    {
      "anonymous": false,
      "inputs": [
        {
          "indexed": true,
          "internalType": "bytes32",
          "name": "messageId",
          "type": "bytes32"
        },
        {
          "indexed": true,
          "internalType": "uint64",
          "name": "destinationChainSelector",
          "type": "uint64"
        },
        {
          "indexed": false,
          "internalType": "address",
          "name": "receiver",
          "type": "address"
        },
        {
          "indexed": false,
          "internalType": "address",
          "name": "token",
          "type": "address"
        },
        {
          "indexed": false,
          "internalType": "uint256",
          "name": "tokenAmount",
          "type": "uint256"
        },
        {
          "indexed": false,
          "internalType": "address",
          "name": "feeToken",
          "type": "address"
        },
        {
          "indexed": false,
          "internalType": "uint256",
          "name": "fees",
          "type": "uint256"
        }
      ],
      "name": "TokensTransferred",
      "type": "event"
    },
    {
      "anonymous": false,
      "inputs": [
        {
          "indexed": true,
          "internalType": "address",
          "name": "user",
          "type": "address"
        }
      ],
      "name": "UnHoarded",
      "type": "event"
    },
    {
      "anonymous": false,
      "inputs": [
        {
          "indexed": false,
          "internalType": "bytes32",
          "name": "messageId",
          "type": "bytes32"
        },
        {
          "indexed": false,
          "internalType": "uint64",
          "name": "_destinationChainSelector",
          "type": "uint64"
        },
        {
          "indexed": false,
          "internalType": "address",
          "name": "receiver",
          "type": "address"
        },
        {
          "indexed": false,
          "internalType": "uint256",
          "name": "amount",
          "type": "uint256"
        },
        {
          "indexed": false,
          "internalType": "uint256",
          "name": "ccipFee",
          "type": "uint256"
        }
      ],
      "name": "UsdcTransferred",
      "type": "event"
    },
    {
      "inputs": [
        {
          "internalType": "address",
          "name": "_owner",
          "type": "address"
        }
      ],
      "name": "CheckUsdcBalance",
      "outputs": [
        {
          "internalType": "uint256",
          "name": "",
          "type": "uint256"
        }
      ],
      "stateMutability": "view",
      "type": "function"
    },
    {
      "inputs": [
        {
          "internalType": "address",
          "name": "_owner",
          "type": "address"
        }
      ],
      "name": "Check_Usdc_Hoarded_Balance",
      "outputs": [
        {
          "internalType": "uint256",
          "name": "",
          "type": "uint256"
        }
      ],
      "stateMutability": "view",
      "type": "function"
    },
    {
      "inputs": [],
      "name": "ClaimReward",
      "outputs": [],
      "stateMutability": "nonpayable",
      "type": "function"
    },
    {
      "inputs": [
        {
          "internalType": "uint256",
          "name": "_amount",
          "type": "uint256"
        }
      ],
      "name": "DonationPool",
      "outputs": [],
      "stateMutability": "nonpayable",
      "type": "function"
    },
    {
      "inputs": [
        {
          "internalType": "address",
          "name": "_hoarder",
          "type": "address"
        }
      ],
      "name": "GetHoardingingTimeInSeconds",
      "outputs": [
        {
          "internalType": "uint256",
          "name": "",
          "type": "uint256"
        }
      ],
      "stateMutability": "view",
      "type": "function"
    },
    {
      "inputs": [
        {
          "internalType": "uint256",
          "name": "_amount",
          "type": "uint256"
        }
      ],
      "name": "Hoard",
      "outputs": [],
      "stateMutability": "nonpayable",
      "type": "function"
    },
    {
      "inputs": [
        {
          "internalType": "uint256",
          "name": "_amount",
          "type": "uint256"
        }
      ],
      "name": "IncreaseHoard",
      "outputs": [],
      "stateMutability": "nonpayable",
      "type": "function"
    },
    {
      "inputs": [],
      "name": "Total_Hoarders",
      "outputs": [
        {
          "internalType": "uint256",
          "name": "",
          "type": "uint256"
        }
      ],
      "stateMutability": "view",
      "type": "function"
    },
    {
      "inputs": [],
      "name": "Total_Reward_Pool",
      "outputs": [
        {
          "internalType": "uint256",
          "name": "",
          "type": "uint256"
        }
      ],
      "stateMutability": "view",
      "type": "function"
    },
    {
      "inputs": [],
      "name": "Unhoard",
      "outputs": [],
      "stateMutability": "nonpayable",
      "type": "function"
    },
    {
      "inputs": [
        {
          "internalType": "address",
          "name": "account",
          "type": "address"
        }
      ],
      "name": "allowanceUsdc",
      "outputs": [
        {
          "internalType": "uint256",
          "name": "usdcAmount",
          "type": "uint256"
        }
      ],
      "stateMutability": "view",
      "type": "function"
    },
    {
      "inputs": [
        {
          "internalType": "uint64",
          "name": "_destinationChainSelector",
          "type": "uint64"
        },
        {
          "internalType": "bool",
          "name": "allowed",
          "type": "bool"
        }
      ],
      "name": "allowlistDestinationChain",
      "outputs": [],
      "stateMutability": "nonpayable",
      "type": "function"
    },
    {
      "inputs": [
        {
          "internalType": "uint64",
          "name": "",
          "type": "uint64"
        }
      ],
      "name": "allowlistedChains",
      "outputs": [
        {
          "internalType": "bool",
          "name": "",
          "type": "bool"
        }
      ],
      "stateMutability": "view",
      "type": "function"
    },
    {
      "inputs": [
        {
          "internalType": "address",
          "name": "account",
          "type": "address"
        }
      ],
      "name": "balancesOf",
      "outputs": [
        {
          "internalType": "uint256",
          "name": "linkBalance",
          "type": "uint256"
        },
        {
          "internalType": "uint256",
          "name": "usdcBalance",
          "type": "uint256"
        }
      ],
      "stateMutability": "view",
      "type": "function"
    },
    {
      "inputs": [
        {
          "internalType": "address",
          "name": "_hoarder",
          "type": "address"
        }
      ],
      "name": "calculateReward",
      "outputs": [
        {
          "internalType": "uint256",
          "name": "",
          "type": "uint256"
        }
      ],
      "stateMutability": "view",
      "type": "function"
    },
    {
      "inputs": [
        {
          "internalType": "address",
          "name": "",
          "type": "address"
        }
      ],
      "name": "hoarders",
      "outputs": [
        {
          "internalType": "uint256",
          "name": "hoarded",
          "type": "uint256"
        },
        {
          "internalType": "uint256",
          "name": "timeHoarded",
          "type": "uint256"
        },
        {
          "internalType": "bool",
          "name": "isHoarding",
          "type": "bool"
        },
        {
          "internalType": "uint256",
          "name": "Total_AllTime_Hoarded",
          "type": "uint256"
        },
        {
          "internalType": "uint256",
          "name": "reward",
          "type": "uint256"
        },
        {
          "internalType": "uint256",
          "name": "Total_AllTime_Reward",
          "type": "uint256"
        }
      ],
      "stateMutability": "view",
      "type": "function"
    },
    {
      "inputs": [],
      "name": "owner",
      "outputs": [
        {
          "internalType": "address",
          "name": "",
          "type": "address"
        }
      ],
      "stateMutability": "view",
      "type": "function"
    },
    {
      "inputs": [],
      "name": "totalHoarded",
      "outputs": [
        {
          "internalType": "uint256",
          "name": "",
          "type": "uint256"
        }
      ],
      "stateMutability": "view",
      "type": "function"
    },
    {
      "inputs": [
        {
          "internalType": "address",
          "name": "_receiver",
          "type": "address"
        },
        {
          "internalType": "uint256",
          "name": "_amount",
          "type": "uint256"
        }
      ],
      "name": "transferUsdcToSepolia",
      "outputs": [
        {
          "internalType": "bytes32",
          "name": "messageId",
          "type": "bytes32"
        }
      ],
      "stateMutability": "nonpayable",
      "type": "function"
    },
    {
      "inputs": [
        {
          "internalType": "address",
          "name": "_beneficiary",
          "type": "address"
        },
        {
          "internalType": "address",
          "name": "_token",
          "type": "address"
        }
      ],
      "name": "withdrawToken",
      "outputs": [],
      "stateMutability": "nonpayable",
      "type": "function"
    }
  ],
  "transactionHash": "0x55632773afc6429f08cec6f63010ef26bd2872ca40d244568928d55b4d184b56",
  "args": [
    "0xD3b06cEbF099CE7DA4AcCf578aaebFDBd6e88a93",
    "0xE4aB69C077896252FAFBD49EFD26B5D171A32410"
  ],
  "numDeployments": 2,
  "solcInputHash": "1a56717702965808e7309670b5093345",
  "bytecode": "0x60c060405260006003819055600455600980546001600160e01b0319167bde41ba4fc9d91ad9036cbd53842c5426634e7929541ec2318f3dcf7e1790553480156200004957600080fd5b5060405162002b3a38038062002b3a8339810160408190526200006c91620000ca565b600160005560078054336001600160a01b031991821617909155600880549091166001600160a01b0393841617905581166080526009541660a05262000102565b80516001600160a01b0381168114620000c557600080fd5b919050565b60008060408385031215620000de57600080fd5b620000e983620000ad565b9150620000f960208401620000ad565b90509250929050565b60805160a051612986620001b46000396000818161040e0152818161053d015281816106ac01528181610b7701528181610c7601528181610da401528181610f1d0152818161106601528181611236015281816114c70152818161161001528181611871015281816118f401528181611dc101528181611e7601528181611f450152611fbc015260008181611183015281816119b301528181611b6201528181611c170152611d2301526129866000f3fe608060405234801561001057600080fd5b506004361061016c5760003560e01c806379372f9a116100cd578063a886aafe11610081578063d82e396211610066578063d82e396214610387578063e90f1b721461039a578063fe2c5d36146103ad57600080fd5b8063a886aafe1461036b578063a98cb7f91461037457600080fd5b806396d3b83d116100b257806396d3b83d146102ca5780639ce521b3146102dd578063a06d65ad1461035857600080fd5b806379372f9a1461027d5780638da5cb5b1461028557600080fd5b80633aeac4e111610124578063559b4ca311610109578063559b4ca3146102395780635a4d2eaa146102425780636392a51f1461025557600080fd5b80633aeac4e11461021e5780633e0dc7211461023157600080fd5b80631ef516cf116101555780631ef516cf146101c057806320464d71146101d3578063355f60d21461020957600080fd5b80630afa1dd3146101715780630bb106eb1461018d575b600080fd5b61017a60045481565b6040519081526020015b60405180910390f35b6101b061019b3660046125a2565b60066020526000908152604090205460ff1681565b6040519015158152602001610184565b61017a6101ce3660046125e8565b6103c0565b61017a6101e13660046125e8565b73ffffffffffffffffffffffffffffffffffffffff1660009081526001602052604090205490565b61021c610217366004612603565b610482565b005b61021c61022c36600461261c565b610824565b61021c6109b4565b61017a60035481565b61021c610250366004612603565b610eec565b6102686102633660046125e8565b611139565b60408051928352602083019190915201610184565b61021c6112aa565b6007546102a59073ffffffffffffffffffffffffffffffffffffffff1681565b60405173ffffffffffffffffffffffffffffffffffffffff9091168152602001610184565b61021c6102d836600461265d565b611428565b6103256102eb3660046125e8565b6001602081905260009182526040909120805491810154600282015460038301546004840154600590940154929360ff9092169290919086565b604080519687526020870195909552921515938501939093526060840152608083019190915260a082015260c001610184565b61021c610366366004612603565b611496565b61017a60055481565b61017a6103823660046125e8565b611759565b61017a6103953660046125e8565b61178c565b61017a6103a83660046125e8565b611829565b61017a6103bb366004612694565b6118a2565b6040517fdd62ed3e00000000000000000000000000000000000000000000000000000000815273ffffffffffffffffffffffffffffffffffffffff82811660048301523060248301526000917f00000000000000000000000000000000000000000000000000000000000000009091169063dd62ed3e906044015b602060405180830381865afa158015610458573d6000803e3d6000fd5b505050506040513d601f19601f8201168201806040525081019061047c91906126be565b92915050565b61048a612181565b3360009081526001602052604090206002015460ff161561050c576040517f08c379a000000000000000000000000000000000000000000000000000000000815260206004820152601560248201527f486f617264657220616c7265616479206578697374000000000000000000000060448201526064015b60405180910390fd5b6040517f70a082310000000000000000000000000000000000000000000000000000000081523360048201526000907f000000000000000000000000000000000000000000000000000000000000000073ffffffffffffffffffffffffffffffffffffffff16906370a0823190602401602060405180830381865afa158015610599573d6000803e3d6000fd5b505050506040513d601f19601f820116820180604052508101906105bd91906126be565b1015610671576040517f08c379a000000000000000000000000000000000000000000000000000000000815260206004820152604660248201527f596f752063616e6e6f7420686f617264206d6f726520746f6b656e732074686160448201527f6e20796f7520686f6c6420616e6420686f617264696e67206973204e6f6e2d5260648201527f65456e7472790000000000000000000000000000000000000000000000000000608482015260a401610503565b6040517f23b872dd000000000000000000000000000000000000000000000000000000008152336004820152306024820152604481018290527f000000000000000000000000000000000000000000000000000000000000000073ffffffffffffffffffffffffffffffffffffffff16906323b872dd906064016020604051808303816000875af115801561070a573d6000803e3d6000fd5b505050506040513d601f19601f8201168201806040525081019061072e91906126d7565b50336000908152600160205260408120805483929061074e908490612723565b9091555050336000908152600160208190526040822042818301556002810180547fffffffffffffffffffffffffffffffffffffffffffffffffffffffffffffff001690921790915560030180548392906107aa908490612723565b9250508190555080600360008282546107c39190612723565b925050819055506001600460008282546107dd9190612723565b909155505060405181815233907f8719c6d42263b6c9964f8fd07267a1296b19fd97340b880de23e57cab3f290a99060200160405180910390a26108216001600055565b50565b60075473ffffffffffffffffffffffffffffffffffffffff16331461084857600080fd5b6040517f70a0823100000000000000000000000000000000000000000000000000000000815230600482015260009073ffffffffffffffffffffffffffffffffffffffff8316906370a0823190602401602060405180830381865afa1580156108b5573d6000803e3d6000fd5b505050506040513d601f19601f820116820180604052508101906108d991906126be565b905080600003610915576040517fd0d04f6000000000000000000000000000000000000000000000000000000000815260040160405180910390fd5b6040517fa9059cbb00000000000000000000000000000000000000000000000000000000815273ffffffffffffffffffffffffffffffffffffffff84811660048301526024820183905283169063a9059cbb906044016020604051808303816000875af115801561098a573d6000803e3d6000fd5b505050506040513d601f19601f820116820180604052508101906109ae91906126d7565b50505050565b3360009081526001602081905260409091206002015460ff16151514610a5c576040517f08c379a000000000000000000000000000000000000000000000000000000000815260206004820152602a60248201527f596f752063616e6e6f7420756e686f61726420696620796f7520617265206e6f60448201527f7420686f617264696e67000000000000000000000000000000000000000000006064820152608401610503565b3360009081526001602081905260409091200154610a7c90610168612723565b421015610b31576040517f08c379a000000000000000000000000000000000000000000000000000000000815260206004820152605660248201527f596f752063616e6e6f7420756e686f61726420696e207468652066697273742060448201527f36206d696e75746573206f6620686f617264696e67696e6720666f6c6c6f776960648201527f6e67207468652070726f6a6563742036206d6f64656c00000000000000000000608482015260a401610503565b33600081815260016020526040908190205490517fa9059cbb000000000000000000000000000000000000000000000000000000008152600481019290925260248201527f000000000000000000000000000000000000000000000000000000000000000073ffffffffffffffffffffffffffffffffffffffff169063a9059cbb906044016020604051808303816000875af1158015610bd5573d6000803e3d6000fd5b505050506040513d601f19601f82011682018060405250810190610bf991906126d7565b50336000908152600160205260408120546003805491929091610c1d908490612736565b9091555060009050610c2e3361178c565b6040517f70a08231000000000000000000000000000000000000000000000000000000008152306004820152909150819073ffffffffffffffffffffffffffffffffffffffff7f000000000000000000000000000000000000000000000000000000000000000016906370a0823190602401602060405180830381865afa158015610cbd573d6000803e3d6000fd5b505050506040513d601f19601f82011682018060405250810190610ce191906126be565b1015610d6f576040517f08c379a000000000000000000000000000000000000000000000000000000000815260206004820152603f60248201527f54686520636f6e747261637420646f6573206e6f74206861766520656e6f756760448201527f6820746f6b656e7320746f206769766520796f752074686520726577617264006064820152608401610503565b6040517fa9059cbb000000000000000000000000000000000000000000000000000000008152336004820152602481018290527f000000000000000000000000000000000000000000000000000000000000000073ffffffffffffffffffffffffffffffffffffffff169063a9059cbb906044016020604051808303816000875af1158015610e02573d6000803e3d6000fd5b505050506040513d601f19601f82011682018060405250810190610e2691906126d7565b503360009081526001602052604081206005018054839290610e49908490612723565b90915550503360009081526001602052604081206004018054839290610e70908490612723565b9091555050336000908152600160208190526040822082815580820183905560020180547fffffffffffffffffffffffffffffffffffffffffffffffffffffffffffffff001690556004805491929091610ecb908490612736565b925050819055508060056000828254610ee49190612736565b909155505050565b6040517f70a082310000000000000000000000000000000000000000000000000000000081523360048201526000907f000000000000000000000000000000000000000000000000000000000000000073ffffffffffffffffffffffffffffffffffffffff16906370a0823190602401602060405180830381865afa158015610f79573d6000803e3d6000fd5b505050506040513d601f19601f82011682018060405250810190610f9d91906126be565b101561102b576040517f08c379a000000000000000000000000000000000000000000000000000000000815260206004820152602960248201527f596f752063616e6e6f7420706f6f6c206d6f726520746f6b656e73207468616e60448201527f20796f7520686f6c6400000000000000000000000000000000000000000000006064820152608401610503565b6040517f23b872dd000000000000000000000000000000000000000000000000000000008152336004820152306024820152604481018290527f000000000000000000000000000000000000000000000000000000000000000073ffffffffffffffffffffffffffffffffffffffff16906323b872dd906064016020604051808303816000875af11580156110c4573d6000803e3d6000fd5b505050506040513d601f19601f820116820180604052508101906110e891906126d7565b5080600560008282546110fb9190612723565b909155505060405181815233907f423eb3fc7f00914fa251f391851045c36a87052e7afb63e89ad6991b56a6c617906020015b60405180910390a250565b6040517f70a0823100000000000000000000000000000000000000000000000000000000815273ffffffffffffffffffffffffffffffffffffffff828116600483015260009182917f000000000000000000000000000000000000000000000000000000000000000016906370a0823190602401602060405180830381865afa1580156111ca573d6000803e3d6000fd5b505050506040513d601f19601f820116820180604052508101906111ee91906126be565b6040517f70a0823100000000000000000000000000000000000000000000000000000000815273ffffffffffffffffffffffffffffffffffffffff85811660048301529193507f0000000000000000000000000000000000000000000000000000000000000000909116906370a0823190602401602060405180830381865afa15801561127f573d6000803e3d6000fd5b505050506040513d601f19601f820116820180604052508101906112a391906126be565b9050915091565b3360009081526001602081905260409091206002015460ff16151514611352576040517f08c379a000000000000000000000000000000000000000000000000000000000815260206004820152602a60248201527f596f752063616e6e6f7420756e686f61726420696620796f7520617265206e6f60448201527f7420686f617264696e67000000000000000000000000000000000000000000006064820152608401610503565b3360009081526001602081905260409091200154611373906207e900612723565b421015610b31576040517f08c379a000000000000000000000000000000000000000000000000000000000815260206004820152604e60248201527f596f752063616e6e6f7420436c61696d20696e2074686520666972737420362060448201527f64617973206f6620686f617264696e6720666f6c6c6f77696e6720746865207060648201527f726f6a6563742036206d6f64656c000000000000000000000000000000000000608482015260a401610503565b60075473ffffffffffffffffffffffffffffffffffffffff16331461144c57600080fd5b67ffffffffffffffff91909116600090815260066020526040902080547fffffffffffffffffffffffffffffffffffffffffffffffffffffffffffffff0016911515919091179055565b6040517f70a082310000000000000000000000000000000000000000000000000000000081523360048201526000907f000000000000000000000000000000000000000000000000000000000000000073ffffffffffffffffffffffffffffffffffffffff16906370a0823190602401602060405180830381865afa158015611523573d6000803e3d6000fd5b505050506040513d601f19601f8201168201806040525081019061154791906126be565b10156115d5576040517f08c379a000000000000000000000000000000000000000000000000000000000815260206004820152602a60248201527f596f752063616e6e6f7420686f617264206d6f726520746f6b656e732074686160448201527f6e20796f7520686f6c64000000000000000000000000000000000000000000006064820152608401610503565b6040517f23b872dd000000000000000000000000000000000000000000000000000000008152336004820152306024820152604481018290527f000000000000000000000000000000000000000000000000000000000000000073ffffffffffffffffffffffffffffffffffffffff16906323b872dd906064016020604051808303816000875af115801561166e573d6000803e3d6000fd5b505050506040513d601f19601f8201168201806040525081019061169291906126d7565b5033600090815260016020526040812080548392906116b2908490612723565b909155505033600090815260016020819052604082206002810180547fffffffffffffffffffffffffffffffffffffffffffffffffffffffffffffff00169092179091556003018054839290611709908490612723565b9250508190555080600360008282546117229190612723565b909155505060405181815233907f8719c6d42263b6c9964f8fd07267a1296b19fd97340b880de23e57cab3f290a99060200161112e565b73ffffffffffffffffffffffffffffffffffffffff811660009081526001602081905260408220015461047c9042612736565b73ffffffffffffffffffffffffffffffffffffffff811660009081526001602081905260408220015481906117c19042612736565b73ffffffffffffffffffffffffffffffffffffffff8416600090815260016020526040812054919250906064906117f9906006612749565b6118039190612760565b905060006301e133806118168484612749565b6118209190612760565b95945050505050565b6040517f70a0823100000000000000000000000000000000000000000000000000000000815273ffffffffffffffffffffffffffffffffffffffff82811660048301526000917f0000000000000000000000000000000000000000000000000000000000000000909116906370a082319060240161043b565b604080516001808252818301909252600091829190816020015b60408051808201909152600080825260208201528152602001906001900390816118bc579050509050600060405180604001604052807f000000000000000000000000000000000000000000000000000000000000000073ffffffffffffffffffffffffffffffffffffffff16815260200185815250905080826000815181106119485761194861279b565b60209081029190910101526040805160a0810190915273ffffffffffffffffffffffffffffffffffffffff861660c08201526000908060e0810160405160208183030381529060405281526020016040518060200160405280600081525081526020018481526020017f000000000000000000000000000000000000000000000000000000000000000073ffffffffffffffffffffffffffffffffffffffff168152602001611a6b6040518060200160405280600081525060408051915160248084019190915281518084039091018152604490920190526020810180517bffffffffffffffffffffffffffffffffffffffffffffffffffffffff167f97a657c90000000000000000000000000000000000000000000000000000000017905290565b90526008546009546040517f20487ded00000000000000000000000000000000000000000000000000000000815292935060009273ffffffffffffffffffffffffffffffffffffffff909216916320487ded91611af0917401000000000000000000000000000000000000000090910467ffffffffffffffff16908690600401612838565b602060405180830381865afa158015611b0d573d6000803e3d6000fd5b505050506040513d601f19601f82011682018060405250810190611b3191906126be565b6040517f70a082310000000000000000000000000000000000000000000000000000000081523060048201529091507f000000000000000000000000000000000000000000000000000000000000000073ffffffffffffffffffffffffffffffffffffffff16906370a0823190602401602060405180830381865afa158015611bbe573d6000803e3d6000fd5b505050506040513d601f19601f82011682018060405250810190611be291906126be565b811115611cd4576040517f70a082310000000000000000000000000000000000000000000000000000000081523060048201527f000000000000000000000000000000000000000000000000000000000000000073ffffffffffffffffffffffffffffffffffffffff16906370a0823190602401602060405180830381865afa158015611c73573d6000803e3d6000fd5b505050506040513d601f19601f82011682018060405250810190611c9791906126be565b6040517f28fdcaa1000000000000000000000000000000000000000000000000000000008152600481019190915260248101829052604401610503565b6008546040517f095ea7b300000000000000000000000000000000000000000000000000000000815273ffffffffffffffffffffffffffffffffffffffff9182166004820152602481018390527f00000000000000000000000000000000000000000000000000000000000000009091169063095ea7b3906044016020604051808303816000875af1158015611d6e573d6000803e3d6000fd5b505050506040513d601f19601f82011682018060405250810190611d9291906126d7565b506040517f70a082310000000000000000000000000000000000000000000000000000000081523360048201527f000000000000000000000000000000000000000000000000000000000000000073ffffffffffffffffffffffffffffffffffffffff16906370a0823190602401602060405180830381865afa158015611e1d573d6000803e3d6000fd5b505050506040513d601f19601f82011682018060405250810190611e4191906126be565b861115611f2b576040517f70a082310000000000000000000000000000000000000000000000000000000081523360048201527f000000000000000000000000000000000000000000000000000000000000000073ffffffffffffffffffffffffffffffffffffffff16906370a0823190602401602060405180830381865afa158015611ed2573d6000803e3d6000fd5b505050506040513d601f19601f82011682018060405250810190611ef691906126be565b6040517f6212cf3b00000000000000000000000000000000000000000000000000000000815260040161050391815260200190565b611f6d73ffffffffffffffffffffffffffffffffffffffff7f0000000000000000000000000000000000000000000000000000000000000000163330896121f4565b6008546040517f095ea7b300000000000000000000000000000000000000000000000000000000815273ffffffffffffffffffffffffffffffffffffffff9182166004820152602481018890527f00000000000000000000000000000000000000000000000000000000000000009091169063095ea7b3906044016020604051808303816000875af1158015612007573d6000803e3d6000fd5b505050506040513d601f19601f8201168201806040525081019061202b91906126d7565b506008546009546040517f96f4e9f900000000000000000000000000000000000000000000000000000000815273ffffffffffffffffffffffffffffffffffffffff909216916396f4e9f9916120a9917401000000000000000000000000000000000000000090910467ffffffffffffffff16908690600401612838565b6020604051808303816000875af11580156120c8573d6000803e3d6000fd5b505050506040513d601f19601f820116820180604052508101906120ec91906126be565b600954604080518381527401000000000000000000000000000000000000000090920467ffffffffffffffff16602083015273ffffffffffffffffffffffffffffffffffffffff8a169082015260608101889052608081018390529095507fb55a3d3f1ccd1c10f00aff03ad884028d98fa1d478fae03acecbf884ce8e8fbc9060a00160405180910390a15050505092915050565b6002600054036121ed576040517f08c379a000000000000000000000000000000000000000000000000000000000815260206004820152601f60248201527f5265656e7472616e637947756172643a207265656e7472616e742063616c6c006044820152606401610503565b6002600055565b6040805173ffffffffffffffffffffffffffffffffffffffff8581166024830152848116604483015260648083018590528351808403909101815260849092018352602080830180517bffffffffffffffffffffffffffffffffffffffffffffffffffffffff167f23b872dd0000000000000000000000000000000000000000000000000000000017905283518085019094528084527f5361666545524332303a206c6f772d6c6576656c2063616c6c206661696c6564908401526109ae928792916000916122c7918516908490612376565b80519091501561237157808060200190518101906122e591906126d7565b612371576040517f08c379a000000000000000000000000000000000000000000000000000000000815260206004820152602a60248201527f5361666545524332303a204552433230206f7065726174696f6e20646964206e60448201527f6f742073756363656564000000000000000000000000000000000000000000006064820152608401610503565b505050565b6060612385848460008561238d565b949350505050565b60608247101561241f576040517f08c379a000000000000000000000000000000000000000000000000000000000815260206004820152602660248201527f416464726573733a20696e73756666696369656e742062616c616e636520666f60448201527f722063616c6c00000000000000000000000000000000000000000000000000006064820152608401610503565b6000808673ffffffffffffffffffffffffffffffffffffffff168587604051612448919061294a565b60006040518083038185875af1925050503d8060008114612485576040519150601f19603f3d011682016040523d82523d6000602084013e61248a565b606091505b509150915061249b878383876124a6565b979650505050505050565b6060831561253c5782516000036125355773ffffffffffffffffffffffffffffffffffffffff85163b612535576040517f08c379a000000000000000000000000000000000000000000000000000000000815260206004820152601d60248201527f416464726573733a2063616c6c20746f206e6f6e2d636f6e74726163740000006044820152606401610503565b5081612385565b61238583838151156125515781518083602001fd5b806040517f08c379a00000000000000000000000000000000000000000000000000000000081526004016105039190612966565b803567ffffffffffffffff8116811461259d57600080fd5b919050565b6000602082840312156125b457600080fd5b6125bd82612585565b9392505050565b803573ffffffffffffffffffffffffffffffffffffffff8116811461259d57600080fd5b6000602082840312156125fa57600080fd5b6125bd826125c4565b60006020828403121561261557600080fd5b5035919050565b6000806040838503121561262f57600080fd5b612638836125c4565b9150612646602084016125c4565b90509250929050565b801515811461082157600080fd5b6000806040838503121561267057600080fd5b61267983612585565b915060208301356126898161264f565b809150509250929050565b600080604083850312156126a757600080fd5b6126b0836125c4565b946020939093013593505050565b6000602082840312156126d057600080fd5b5051919050565b6000602082840312156126e957600080fd5b81516125bd8161264f565b7f4e487b7100000000000000000000000000000000000000000000000000000000600052601160045260246000fd5b8082018082111561047c5761047c6126f4565b8181038181111561047c5761047c6126f4565b808202811582820484141761047c5761047c6126f4565b600082612796577f4e487b7100000000000000000000000000000000000000000000000000000000600052601260045260246000fd5b500490565b7f4e487b7100000000000000000000000000000000000000000000000000000000600052603260045260246000fd5b60005b838110156127e55781810151838201526020016127cd565b50506000910152565b600081518084526128068160208601602086016127ca565b601f017fffffffffffffffffffffffffffffffffffffffffffffffffffffffffffffffe0169290920160200192915050565b6000604067ffffffffffffffff8516835260208181850152845160a08386015261286560e08601826127ee565b9050818601517fffffffffffffffffffffffffffffffffffffffffffffffffffffffffffffffc0808784030160608801526128a083836127ee565b88860151888203830160808a01528051808352908601945060009350908501905b80841015612900578451805173ffffffffffffffffffffffffffffffffffffffff168352860151868301529385019360019390930192908601906128c1565b50606089015173ffffffffffffffffffffffffffffffffffffffff1660a08901526080890151888203830160c08a0152955061293c81876127ee565b9a9950505050505050505050565b6000825161295c8184602087016127ca565b9190910192915050565b6020815260006125bd60208301846127ee56fea164736f6c6343000814000a",
  "devdoc": {
    "author": "- @moneyhoardermike",
    "kind": "dev",
    "methods": {
      "allowlistDestinationChain(uint64,bool)": {
        "details": "Updates the allowlist status of a destination chain for transactions.",
        "params": {
          "_destinationChainSelector": "The selector of the destination chain to be updated.",
          "allowed": "The allowlist status to be set for the destination chain."
        }
      },
      "constructor": {
        "params": {
          "b_link": "The address of the link contract.",
          "b_router": "The address of the router contract."
        }
      }
    },
    "title": "- A Hoarding contract for transferring Circle's USDC tokens from Base Sepolia to Ethereum Sepolia to any EOA address.",
    "version": 1
  },
  "userdoc": {
    "kind": "user",
    "methods": {
      "allowlistDestinationChain(uint64,bool)": {
        "notice": "This function can only be called by the owner."
      },
      "constructor": {
        "notice": "Constructor initializes the contract with the router address."
      }
    },
    "version": 1
  },
  "storageLayout": {
    "storage": [
      {
        "astId": 956,
        "contract": "contracts/UsdcCrossChainHoardingBase.sol:UsdcCrossChainHoardingBase",
        "label": "_status",
        "offset": 0,
        "slot": "0",
        "type": "t_uint256"
      },
      {
        "astId": 1069,
        "contract": "contracts/UsdcCrossChainHoardingBase.sol:UsdcCrossChainHoardingBase",
        "label": "hoarders",
        "offset": 0,
        "slot": "1",
        "type": "t_mapping(t_address,t_struct(Hoarder)1064_storage)"
      },
      {
        "astId": 1071,
        "contract": "contracts/UsdcCrossChainHoardingBase.sol:UsdcCrossChainHoardingBase",
        "label": "timeHoarded",
        "offset": 0,
        "slot": "2",
        "type": "t_uint256"
      },
      {
        "astId": 1074,
        "contract": "contracts/UsdcCrossChainHoardingBase.sol:UsdcCrossChainHoardingBase",
        "label": "totalHoarded",
        "offset": 0,
        "slot": "3",
        "type": "t_uint256"
      },
      {
        "astId": 1077,
        "contract": "contracts/UsdcCrossChainHoardingBase.sol:UsdcCrossChainHoardingBase",
        "label": "Total_Hoarders",
        "offset": 0,
        "slot": "4",
        "type": "t_uint256"
      },
      {
        "astId": 1079,
        "contract": "contracts/UsdcCrossChainHoardingBase.sol:UsdcCrossChainHoardingBase",
        "label": "Total_Reward_Pool",
        "offset": 0,
        "slot": "5",
        "type": "t_uint256"
      },
      {
        "astId": 1147,
        "contract": "contracts/UsdcCrossChainHoardingBase.sol:UsdcCrossChainHoardingBase",
        "label": "allowlistedChains",
        "offset": 0,
        "slot": "6",
        "type": "t_mapping(t_uint64,t_bool)"
      },
      {
        "astId": 1149,
        "contract": "contracts/UsdcCrossChainHoardingBase.sol:UsdcCrossChainHoardingBase",
        "label": "owner",
        "offset": 0,
        "slot": "7",
        "type": "t_address"
      },
      {
        "astId": 1152,
        "contract": "contracts/UsdcCrossChainHoardingBase.sol:UsdcCrossChainHoardingBase",
        "label": "ccipRouter",
        "offset": 0,
        "slot": "8",
        "type": "t_contract(IRouterClient)51"
      },
      {
        "astId": 1161,
        "contract": "contracts/UsdcCrossChainHoardingBase.sol:UsdcCrossChainHoardingBase",
        "label": "usdcAddress",
        "offset": 0,
        "slot": "9",
        "type": "t_address"
      },
      {
        "astId": 1164,
        "contract": "contracts/UsdcCrossChainHoardingBase.sol:UsdcCrossChainHoardingBase",
        "label": "_destinationChainSelector",
        "offset": 20,
        "slot": "9",
        "type": "t_uint64"
      }
    ],
    "types": {
      "t_address": {
        "encoding": "inplace",
        "label": "address",
        "numberOfBytes": "20"
      },
      "t_bool": {
        "encoding": "inplace",
        "label": "bool",
        "numberOfBytes": "1"
      },
      "t_contract(IRouterClient)51": {
        "encoding": "inplace",
        "label": "contract IRouterClient",
        "numberOfBytes": "20"
      },
      "t_mapping(t_address,t_struct(Hoarder)1064_storage)": {
        "encoding": "mapping",
        "key": "t_address",
        "label": "mapping(address => struct UsdcCrossChainHoardingBase.Hoarder)",
        "numberOfBytes": "32",
        "value": "t_struct(Hoarder)1064_storage"
      },
      "t_mapping(t_uint64,t_bool)": {
        "encoding": "mapping",
        "key": "t_uint64",
        "label": "mapping(uint64 => bool)",
        "numberOfBytes": "32",
        "value": "t_bool"
      },
      "t_struct(Hoarder)1064_storage": {
        "encoding": "inplace",
        "label": "struct UsdcCrossChainHoardingBase.Hoarder",
        "members": [
          {
            "astId": 1053,
            "contract": "contracts/UsdcCrossChainHoardingBase.sol:UsdcCrossChainHoardingBase",
            "label": "hoarded",
            "offset": 0,
            "slot": "0",
            "type": "t_uint256"
          },
          {
            "astId": 1055,
            "contract": "contracts/UsdcCrossChainHoardingBase.sol:UsdcCrossChainHoardingBase",
            "label": "timeHoarded",
            "offset": 0,
            "slot": "1",
            "type": "t_uint256"
          },
          {
            "astId": 1057,
            "contract": "contracts/UsdcCrossChainHoardingBase.sol:UsdcCrossChainHoardingBase",
            "label": "isHoarding",
            "offset": 0,
            "slot": "2",
            "type": "t_bool"
          },
          {
            "astId": 1059,
            "contract": "contracts/UsdcCrossChainHoardingBase.sol:UsdcCrossChainHoardingBase",
            "label": "Total_AllTime_Hoarded",
            "offset": 0,
            "slot": "3",
            "type": "t_uint256"
          },
          {
            "astId": 1061,
            "contract": "contracts/UsdcCrossChainHoardingBase.sol:UsdcCrossChainHoardingBase",
            "label": "reward",
            "offset": 0,
            "slot": "4",
            "type": "t_uint256"
          },
          {
            "astId": 1063,
            "contract": "contracts/UsdcCrossChainHoardingBase.sol:UsdcCrossChainHoardingBase",
            "label": "Total_AllTime_Reward",
            "offset": 0,
            "slot": "5",
            "type": "t_uint256"
          }
        ],
        "numberOfBytes": "192"
      },
      "t_uint256": {
        "encoding": "inplace",
        "label": "uint256",
        "numberOfBytes": "32"
      },
      "t_uint64": {
        "encoding": "inplace",
        "label": "uint64",
        "numberOfBytes": "8"
      }
    }
  }
}